{
  "_format": "hh-sol-artifact-1",
  "contractName": "DAO",
  "sourceName": "contracts/DAO.sol",
  "abi": [
    {
      "inputs": [
        {
          "internalType": "address",
          "name": "_curator",
          "type": "address"
        },
        {
          "internalType": "uint256",
          "name": "_proposalDeposit",
          "type": "uint256"
        },
        {
          "internalType": "contract Token",
          "name": "_token",
          "type": "address"
        }
      ],
      "stateMutability": "nonpayable",
      "type": "constructor"
    },
    {
      "anonymous": false,
      "inputs": [
        {
          "indexed": true,
          "internalType": "address",
          "name": "_recipient",
          "type": "address"
        },
        {
          "indexed": false,
          "internalType": "bool",
          "name": "_allowed",
          "type": "bool"
        }
      ],
      "name": "AllowedRecipientChanged",
      "type": "event"
    },
    {
      "anonymous": false,
      "inputs": [
        {
          "indexed": true,
          "internalType": "uint256",
          "name": "proposalID",
          "type": "uint256"
        },
        {
          "indexed": false,
          "internalType": "address",
          "name": "recipient",
          "type": "address"
        },
        {
          "indexed": false,
          "internalType": "uint256",
          "name": "amount",
          "type": "uint256"
        },
        {
          "indexed": false,
          "internalType": "string",
          "name": "description",
          "type": "string"
        }
      ],
      "name": "ProposalAdded",
      "type": "event"
    },
    {
      "anonymous": false,
      "inputs": [
        {
          "indexed": true,
          "internalType": "uint256",
          "name": "proposalID",
          "type": "uint256"
        },
        {
          "indexed": false,
          "internalType": "bool",
          "name": "result",
          "type": "bool"
        },
        {
          "indexed": false,
          "internalType": "uint256",
          "name": "quorum",
          "type": "uint256"
        }
      ],
      "name": "ProposalCounted",
      "type": "event"
    },
    {
      "anonymous": false,
      "inputs": [
        {
          "indexed": true,
          "internalType": "uint256",
          "name": "proposalID",
          "type": "uint256"
        },
        {
          "indexed": false,
          "internalType": "bool",
          "name": "position",
          "type": "bool"
        },
        {
          "indexed": true,
          "internalType": "address",
          "name": "voter",
          "type": "address"
        }
      ],
      "name": "Voted",
      "type": "event"
    },
    {
      "inputs": [],
      "name": "actualBalance",
      "outputs": [
        {
          "internalType": "uint256",
          "name": "_actualBalance",
          "type": "uint256"
        }
      ],
      "stateMutability": "view",
      "type": "function"
    },
    {
      "inputs": [
        {
          "internalType": "address",
          "name": "",
          "type": "address"
        }
      ],
      "name": "allowedRecipients",
      "outputs": [
        {
          "internalType": "bool",
          "name": "",
          "type": "bool"
        }
      ],
      "stateMutability": "view",
      "type": "function"
    },
    {
      "inputs": [
        {
          "internalType": "address",
          "name": "",
          "type": "address"
        }
      ],
      "name": "blocked",
      "outputs": [
        {
          "internalType": "uint256",
          "name": "",
          "type": "uint256"
        }
      ],
      "stateMutability": "view",
      "type": "function"
    },
    {
      "inputs": [
        {
          "internalType": "address",
          "name": "_recipient",
          "type": "address"
        },
        {
          "internalType": "bool",
          "name": "_allowed",
          "type": "bool"
        }
      ],
      "name": "changeAllowedRecipients",
      "outputs": [
        {
          "internalType": "bool",
          "name": "_success",
          "type": "bool"
        }
      ],
      "stateMutability": "nonpayable",
      "type": "function"
    },
    {
      "inputs": [
        {
          "internalType": "address",
          "name": "_account",
          "type": "address"
        }
      ],
      "name": "changeOrGetBlocked",
      "outputs": [
        {
          "internalType": "bool",
          "name": "",
          "type": "bool"
        }
      ],
      "stateMutability": "nonpayable",
      "type": "function"
    },
    {
      "inputs": [
        {
          "internalType": "uint256",
          "name": "_proposalDeposit",
          "type": "uint256"
        }
      ],
      "name": "changeProposalDeposit",
      "outputs": [],
      "stateMutability": "nonpayable",
      "type": "function"
    },
    {
      "inputs": [
        {
          "internalType": "uint256",
          "name": "_proposalID",
          "type": "uint256"
        },
        {
          "internalType": "address",
          "name": "_recipient",
          "type": "address"
        },
        {
          "internalType": "uint256",
          "name": "_amount",
          "type": "uint256"
        },
        {
          "internalType": "bytes",
          "name": "_transactionData",
          "type": "bytes"
        }
      ],
      "name": "checkProposalCode",
      "outputs": [
        {
          "internalType": "bool",
          "name": "_codeChecksOut",
          "type": "bool"
        }
      ],
      "stateMutability": "view",
      "type": "function"
    },
    {
      "inputs": [],
      "name": "curator",
      "outputs": [
        {
          "internalType": "address",
          "name": "",
          "type": "address"
        }
      ],
      "stateMutability": "view",
      "type": "function"
    },
    {
      "inputs": [
        {
          "internalType": "uint256",
          "name": "_proposalID",
          "type": "uint256"
        },
        {
          "internalType": "bytes",
          "name": "_transactionData",
          "type": "bytes"
        }
      ],
      "name": "executeProposal",
      "outputs": [
        {
          "internalType": "bool",
          "name": "_success",
          "type": "bool"
        }
      ],
      "stateMutability": "nonpayable",
      "type": "function"
    },
    {
      "inputs": [],
      "name": "minQuorumDiv",
      "outputs": [
        {
          "internalType": "uint256",
          "name": "",
          "type": "uint256"
        }
      ],
      "stateMutability": "view",
      "type": "function"
    },
    {
      "inputs": [
        {
          "internalType": "address",
          "name": "_recipient",
          "type": "address"
        },
        {
          "internalType": "uint256",
          "name": "_amount",
          "type": "uint256"
        },
        {
          "internalType": "string",
          "name": "_description",
          "type": "string"
        },
        {
          "internalType": "bytes",
          "name": "_transactionData",
          "type": "bytes"
        },
        {
          "internalType": "uint256",
          "name": "_debatingPeriod",
          "type": "uint256"
        }
      ],
      "name": "newProposal",
      "outputs": [
        {
          "internalType": "uint256",
          "name": "_proposalID",
          "type": "uint256"
        }
      ],
      "stateMutability": "payable",
      "type": "function"
    },
    {
      "inputs": [],
      "name": "numberOfProposals",
      "outputs": [
        {
          "internalType": "uint256",
          "name": "_numberOfProposals",
          "type": "uint256"
        }
      ],
      "stateMutability": "view",
      "type": "function"
    },
    {
      "inputs": [],
      "name": "proposalDeposit",
      "outputs": [
        {
          "internalType": "uint256",
          "name": "",
          "type": "uint256"
        }
      ],
      "stateMutability": "view",
      "type": "function"
    },
    {
      "inputs": [
        {
          "internalType": "uint256",
          "name": "",
          "type": "uint256"
        }
      ],
      "name": "proposals",
      "outputs": [
        {
          "internalType": "address",
          "name": "recipient",
          "type": "address"
        },
        {
          "internalType": "uint256",
          "name": "amount",
          "type": "uint256"
        },
        {
          "internalType": "string",
          "name": "description",
          "type": "string"
        },
        {
          "internalType": "uint256",
          "name": "votingDeadline",
          "type": "uint256"
        },
        {
          "internalType": "bool",
          "name": "open",
          "type": "bool"
        },
        {
          "internalType": "bool",
          "name": "proposalPassed",
          "type": "bool"
        },
        {
          "internalType": "bytes32",
          "name": "proposalHash",
          "type": "bytes32"
        },
        {
          "internalType": "uint256",
          "name": "proposalDeposit",
          "type": "uint256"
        },
        {
          "internalType": "uint256",
          "name": "yes",
          "type": "uint256"
        },
        {
          "internalType": "uint256",
          "name": "no",
          "type": "uint256"
        },
        {
          "internalType": "address",
          "name": "creator",
          "type": "address"
        }
      ],
      "stateMutability": "view",
      "type": "function"
    },
    {
      "inputs": [
        {
          "internalType": "uint256",
          "name": "_proposalID",
          "type": "uint256"
        }
      ],
      "name": "unVote",
      "outputs": [],
      "stateMutability": "nonpayable",
      "type": "function"
    },
    {
      "inputs": [],
      "name": "unVoteAll",
      "outputs": [],
      "stateMutability": "nonpayable",
      "type": "function"
    },
    {
      "inputs": [],
      "name": "unblockMyAcc",
      "outputs": [
        {
          "internalType": "bool",
          "name": "",
          "type": "bool"
        }
      ],
      "stateMutability": "nonpayable",
      "type": "function"
    },
    {
      "inputs": [
        {
          "internalType": "uint256",
          "name": "_proposalID",
          "type": "uint256"
        },
        {
          "internalType": "bool",
          "name": "_supportsProposal",
          "type": "bool"
        }
      ],
      "name": "vote",
      "outputs": [],
      "stateMutability": "nonpayable",
      "type": "function"
    },
    {
      "inputs": [
        {
          "internalType": "address",
          "name": "",
          "type": "address"
        },
        {
          "internalType": "uint256",
          "name": "",
          "type": "uint256"
        }
      ],
      "name": "votingRegister",
      "outputs": [
        {
          "internalType": "uint256",
          "name": "",
          "type": "uint256"
        }
      ],
      "stateMutability": "view",
      "type": "function"
    },
    {
      "stateMutability": "payable",
      "type": "receive"
    }
  ],
  "bytecode": "0x60806040523480156200001157600080fd5b5060405162003090380380620030908339818101604052810190620000379190620002a9565b806000806101000a81548173ffffffffffffffffffffffffffffffffffffffff021916908373ffffffffffffffffffffffffffffffffffffffff16021790555082600360006101000a81548173ffffffffffffffffffffffffffffffffffffffff021916908373ffffffffffffffffffffffffffffffffffffffff1602179055508160078190555060056002819055506001600460003073ffffffffffffffffffffffffffffffffffffffff1673ffffffffffffffffffffffffffffffffffffffff16815260200190815260200160002060006101000a81548160ff021916908315150217905550600160046000600360009054906101000a900473ffffffffffffffffffffffffffffffffffffffff1673ffffffffffffffffffffffffffffffffffffffff1673ffffffffffffffffffffffffffffffffffffffff16815260200190815260200160002060006101000a81548160ff021916908315150217905550600180816001815401808255809150500390600052602060002090505050505062000305565b600080fd5b600073ffffffffffffffffffffffffffffffffffffffff82169050919050565b6000620001f182620001c4565b9050919050565b6200020381620001e4565b81146200020f57600080fd5b50565b6000815190506200022381620001f8565b92915050565b6000819050919050565b6200023e8162000229565b81146200024a57600080fd5b50565b6000815190506200025e8162000233565b92915050565b60006200027182620001e4565b9050919050565b620002838162000264565b81146200028f57600080fd5b50565b600081519050620002a38162000278565b92915050565b600080600060608486031215620002c557620002c4620001bf565b5b6000620002d58682870162000212565b9350506020620002e8868287016200024d565b9250506040620002fb8682870162000292565b9150509250925092565b612d7b80620003156000396000f3fe6080604052600436106101185760003560e01c8063749f9889116100a0578063ccd8ad7911610064578063ccd8ad79146103dc578063e33734fd1461040c578063e596219514610435578063e66f53b714610472578063eceb29451461049d5761011f565b8063749f9889146102f75780638b15a605146103345780638d7af4731461035f5780639fd6adb31461038a578063c9d27afe146103b35761011f565b8063252ccc3c116100e7578063252ccc3c1461021057806339d1f9081461024d5780633bf53a89146102785780634df6d6cc1461028f5780635818bcf8146102cc5761011f565b8063013cf08b1461012457806303d41e661461016b578063161f97f0146101a8578063237e9492146101d35761011f565b3661011f57005b600080fd5b34801561013057600080fd5b5061014b60048036038101906101469190611fad565b6104da565b6040516101629b9a999897969594939291906120f7565b60405180910390f35b34801561017757600080fd5b50610192600480360381019061018d91906121d5565b610626565b60405161019f9190612215565b60405180910390f35b3480156101b457600080fd5b506101bd610657565b6040516101ca9190612230565b60405180910390f35b3480156101df57600080fd5b506101fa60048036038101906101f59190612380565b610667565b6040516102079190612230565b60405180910390f35b34801561021c57600080fd5b50610237600480360381019061023291906123dc565b610ba9565b6040516102449190612230565b60405180910390f35b34801561025957600080fd5b50610262610cd0565b60405161026f9190612215565b60405180910390f35b34801561028457600080fd5b5061028d610ce5565b005b34801561029b57600080fd5b506102b660048036038101906102b191906123dc565b610ecb565b6040516102c39190612230565b60405180910390f35b3480156102d857600080fd5b506102e1610eeb565b6040516102ee9190612215565b60405180910390f35b34801561030357600080fd5b5061031e60048036038101906103199190612435565b610ef1565b60405161032b9190612230565b60405180910390f35b34801561034057600080fd5b50610349611032565b6040516103569190612215565b60405180910390f35b34801561036b57600080fd5b50610374611038565b6040516103819190612215565b60405180910390f35b34801561039657600080fd5b506103b160048036038101906103ac9190611fad565b611050565b005b3480156103bf57600080fd5b506103da60048036038101906103d59190612475565b611386565b005b6103f660048036038101906103f19190612556565b611824565b6040516104039190612215565b60405180910390f35b34801561041857600080fd5b50610433600480360381019061042e9190611fad565b611b81565b005b34801561044157600080fd5b5061045c600480360381019061045791906123dc565b611c1b565b6040516104699190612215565b60405180910390f35b34801561047e57600080fd5b50610487611c33565b6040516104949190612609565b60405180910390f35b3480156104a957600080fd5b506104c460048036038101906104bf9190612624565b611c59565b6040516104d19190612230565b60405180910390f35b600181815481106104ea57600080fd5b90600052602060002090600c02016000915090508060000160009054906101000a900473ffffffffffffffffffffffffffffffffffffffff1690806001015490806002018054610539906126d6565b80601f0160208091040260200160405190810160405280929190818152602001828054610565906126d6565b80156105b25780601f10610587576101008083540402835291602001916105b2565b820191906000526020600020905b81548152906001019060200180831161059557829003601f168201915b5050505050908060030154908060040160009054906101000a900460ff16908060040160019054906101000a900460ff169080600501549080600601549080600701549080600801549080600b0160009054906101000a900473ffffffffffffffffffffffffffffffffffffffff1690508b565b6006602052816000526040600020818154811061064257600080fd5b90600052602060002001600091509150505481565b600061066233610ba9565b905090565b6000600360009054906101000a900473ffffffffffffffffffffffffffffffffffffffff1673ffffffffffffffffffffffffffffffffffffffff163373ffffffffffffffffffffffffffffffffffffffff16146106f9576040517f08c379a00000000000000000000000000000000000000000000000000000000081526004016106f090612754565b60405180910390fd5b60006001848154811061070f5761070e612774565b5b90600052602060002090600c020190508060040160009054906101000a900460ff16801561074e5750620d2f00816003015461074b91906127d2565b42115b156107665761075c84611cbc565b6001915050610ba3565b8060030154421015801561078857508060040160009054906101000a900460ff165b80156107a357508060040160019054906101000a900460ff16155b801561080457508060000160009054906101000a900473ffffffffffffffffffffffffffffffffffffffff168160010154846040516020016107e79392919061287d565b604051602081830303815290604052805190602001208160050154145b610843576040517f08c379a000000000000000000000000000000000000000000000000000000000815260040161083a90612907565b60405180910390fd5b600460008260000160009054906101000a900473ffffffffffffffffffffffffffffffffffffffff1673ffffffffffffffffffffffffffffffffffffffff1673ffffffffffffffffffffffffffffffffffffffff16815260200190815260200160002060009054906101000a900460ff1661093a576108c184611cbc565b80600b0160009054906101000a900473ffffffffffffffffffffffffffffffffffffffff1673ffffffffffffffffffffffffffffffffffffffff166108fc82600601549081150290604051600060405180830381858888f1935050505015801561092f573d6000803e3d6000fd5b506001915050610ba3565b6000600190506000826007015490506109568360010154611d38565b8110610a3257600083600b0160009054906101000a900473ffffffffffffffffffffffffffffffffffffffff1673ffffffffffffffffffffffffffffffffffffffff1684600601546040516109aa90612958565b60006040518083038185875af1925050503d80600081146109e7576040519150601f19603f3d011682016040523d82523d6000602084013e6109ec565b606091505b5050905080610a30576040517f08c379a0000000000000000000000000000000000000000000000000000000008152600401610a27906129b9565b60405180910390fd5b505b610a3f8360010154611d38565b8110158015610a55575082600801548360070154115b8015610a5e5750815b15610b5c5760018360040160016101000a81548160ff02191690831515021790555060008360000160009054906101000a900473ffffffffffffffffffffffffffffffffffffffff1673ffffffffffffffffffffffffffffffffffffffff16846001015487604051610ad09190612a0a565b60006040518083038185875af1925050503d8060008114610b0d576040519150601f19603f3d011682016040523d82523d6000602084013e610b12565b606091505b5050905080610b56576040517f08c379a0000000000000000000000000000000000000000000000000000000008152600401610b4d906129b9565b60405180910390fd5b60019450505b610b6586611cbc565b857f3c18bca7f317800a606f88094a1e2efe2f3415a4b8ef7cfd72ca39576ce372858583604051610b97929190612a21565b60405180910390a25050505b92915050565b600080600560008473ffffffffffffffffffffffffffffffffffffffff1673ffffffffffffffffffffffffffffffffffffffff168152602001908152602001600020541415610bfb5760009050610ccb565b60006001600560008573ffffffffffffffffffffffffffffffffffffffff1673ffffffffffffffffffffffffffffffffffffffff1681526020019081526020016000205481548110610c5057610c4f612774565b5b90600052602060002090600c020190508060040160009054906101000a900460ff16610cc5576000600560008573ffffffffffffffffffffffffffffffffffffffff1673ffffffffffffffffffffffffffffffffffffffff168152602001908152602001600020819055506000915050610ccb565b60019150505b919050565b600060085447610ce09190612a4a565b905090565b60005b600660003373ffffffffffffffffffffffffffffffffffffffff1673ffffffffffffffffffffffffffffffffffffffff16815260200190815260200160002080549050811015610e385760006001600660003373ffffffffffffffffffffffffffffffffffffffff1673ffffffffffffffffffffffffffffffffffffffff1681526020019081526020016000208381548110610d8757610d86612774565b5b906000526020600020015481548110610da357610da2612774565b5b90600052602060002090600c020190508060030154421015610e2457610e23600660003373ffffffffffffffffffffffffffffffffffffffff1673ffffffffffffffffffffffffffffffffffffffff1681526020019081526020016000208381548110610e1357610e12612774565b5b9060005260206000200154611050565b5b508080610e3090612a7e565b915050610ce8565b50600660003373ffffffffffffffffffffffffffffffffffffffff1673ffffffffffffffffffffffffffffffffffffffff1681526020019081526020016000206000610e849190611e9f565b6000600560003373ffffffffffffffffffffffffffffffffffffffff1673ffffffffffffffffffffffffffffffffffffffff16815260200190815260200160002081905550565b60046020528060005260406000206000915054906101000a900460ff1681565b60025481565b6000600360009054906101000a900473ffffffffffffffffffffffffffffffffffffffff1673ffffffffffffffffffffffffffffffffffffffff163373ffffffffffffffffffffffffffffffffffffffff1614610f83576040517f08c379a0000000000000000000000000000000000000000000000000000000008152600401610f7a90612754565b60405180910390fd5b81600460008573ffffffffffffffffffffffffffffffffffffffff1673ffffffffffffffffffffffffffffffffffffffff16815260200190815260200160002060006101000a81548160ff0219169083151502179055508273ffffffffffffffffffffffffffffffffffffffff167f73ad2a153c8b67991df9459024950b318a609782cee8c7eeda47b905f9baa91f836040516110209190612230565b60405180910390a26001905092915050565b60075481565b60006001808054905061104b9190612a4a565b905090565b60006001828154811061106657611065612774565b5b90600052602060002090600c02019050806003015442106110bc576040517f08c379a00000000000000000000000000000000000000000000000000000000081526004016110b390612b13565b60405180910390fd5b8060090160003373ffffffffffffffffffffffffffffffffffffffff1673ffffffffffffffffffffffffffffffffffffffff16815260200190815260200160002060009054906101000a900460ff161561121f5760008054906101000a900473ffffffffffffffffffffffffffffffffffffffff1673ffffffffffffffffffffffffffffffffffffffff166370a08231336040518263ffffffff1660e01b81526004016111699190612609565b602060405180830381865afa158015611186573d6000803e3d6000fd5b505050506040513d601f19601f820116820180604052508101906111aa9190612b48565b8160070160008282546111bd9190612a4a565b9250508190555060008160090160003373ffffffffffffffffffffffffffffffffffffffff1673ffffffffffffffffffffffffffffffffffffffff16815260200190815260200160002060006101000a81548160ff0219169083151502179055505b80600a0160003373ffffffffffffffffffffffffffffffffffffffff1673ffffffffffffffffffffffffffffffffffffffff16815260200190815260200160002060009054906101000a900460ff16156113825760008054906101000a900473ffffffffffffffffffffffffffffffffffffffff1673ffffffffffffffffffffffffffffffffffffffff166370a08231336040518263ffffffff1660e01b81526004016112cc9190612609565b602060405180830381865afa1580156112e9573d6000803e3d6000fd5b505050506040513d601f19601f8201168201806040525081019061130d9190612b48565b8160080160008282546113209190612a4a565b92505081905550600081600a0160003373ffffffffffffffffffffffffffffffffffffffff1673ffffffffffffffffffffffffffffffffffffffff16815260200190815260200160002060006101000a81548160ff0219169083151502179055505b5050565b60006001838154811061139c5761139b612774565b5b90600052602060002090600c02019050806003015442106113f2576040517f08c379a00000000000000000000000000000000000000000000000000000000081526004016113e990612b13565b60405180910390fd5b6113fb83611050565b81156115145760008054906101000a900473ffffffffffffffffffffffffffffffffffffffff1673ffffffffffffffffffffffffffffffffffffffff166370a08231336040518263ffffffff1660e01b815260040161145a9190612609565b602060405180830381865afa158015611477573d6000803e3d6000fd5b505050506040513d601f19601f8201168201806040525081019061149b9190612b48565b8160070160008282546114ae91906127d2565b9250508190555060018160090160003373ffffffffffffffffffffffffffffffffffffffff1673ffffffffffffffffffffffffffffffffffffffff16815260200190815260200160002060006101000a81548160ff021916908315150217905550611623565b60008054906101000a900473ffffffffffffffffffffffffffffffffffffffff1673ffffffffffffffffffffffffffffffffffffffff166370a08231336040518263ffffffff1660e01b815260040161156d9190612609565b602060405180830381865afa15801561158a573d6000803e3d6000fd5b505050506040513d601f19601f820116820180604052508101906115ae9190612b48565b8160080160008282546115c191906127d2565b92505081905550600181600a0160003373ffffffffffffffffffffffffffffffffffffffff1673ffffffffffffffffffffffffffffffffffffffff16815260200190815260200160002060006101000a81548160ff0219169083151502179055505b6000600560003373ffffffffffffffffffffffffffffffffffffffff1673ffffffffffffffffffffffffffffffffffffffff1681526020019081526020016000205414156116b45782600560003373ffffffffffffffffffffffffffffffffffffffff1673ffffffffffffffffffffffffffffffffffffffff1681526020019081526020016000208190555061176a565b6001600560003373ffffffffffffffffffffffffffffffffffffffff1673ffffffffffffffffffffffffffffffffffffffff168152602001908152602001600020548154811061170757611706612774565b5b90600052602060002090600c020160030154816003015411156117695782600560003373ffffffffffffffffffffffffffffffffffffffff1673ffffffffffffffffffffffffffffffffffffffff168152602001908152602001600020819055505b5b600660003373ffffffffffffffffffffffffffffffffffffffff1673ffffffffffffffffffffffffffffffffffffffff1681526020019081526020016000208390806001815401808255809150506001900390600052602060002001600090919091909150553373ffffffffffffffffffffffffffffffffffffffff16837f86abfce99b7dd908bec0169288797f85049ec73cbe046ed9de818fab3a497ae0846040516118179190612230565b60405180910390a3505050565b60008060008054906101000a900473ffffffffffffffffffffffffffffffffffffffff1673ffffffffffffffffffffffffffffffffffffffff166370a08231336040518263ffffffff1660e01b81526004016118809190612609565b602060405180830381865afa15801561189d573d6000803e3d6000fd5b505050506040513d601f19601f820116820180604052508101906118c19190612b48565b1415611902576040517f08c379a00000000000000000000000000000000000000000000000000000000081526004016118f990612bc1565b60405180910390fd5b600460008773ffffffffffffffffffffffffffffffffffffffff1673ffffffffffffffffffffffffffffffffffffffff16815260200190815260200160002060009054906101000a900460ff16801561195d57506213c68082115b801561196b57506007543410155b80156119a357503073ffffffffffffffffffffffffffffffffffffffff163373ffffffffffffffffffffffffffffffffffffffff1614155b6119e2576040517f08c379a00000000000000000000000000000000000000000000000000000000081526004016119d990612c2d565b60405180910390fd5b60018054905090506000600180816001815401808255809150500390600052602060002090600c02019050868160000160006101000a81548173ffffffffffffffffffffffffffffffffffffffff021916908373ffffffffffffffffffffffffffffffffffffffff16021790555085816001018190555084816002019080519060200190611a71929190611ec0565b50868685604051602001611a879392919061287d565b6040516020818303038152906040528051906020012081600501819055508242611ab191906127d2565b816003018190555060018160040160006101000a81548160ff0219169083151502179055503381600b0160006101000a81548173ffffffffffffffffffffffffffffffffffffffff021916908373ffffffffffffffffffffffffffffffffffffffff1602179055503481600601819055503460086000828254611b3491906127d2565b92505081905550817f646fec02522b41e7125cfc859a64fd4f4cefd5dc3b6237ca0abe251ded1fa881888888604051611b6f93929190612c4d565b60405180910390a25095945050505050565b600360009054906101000a900473ffffffffffffffffffffffffffffffffffffffff1673ffffffffffffffffffffffffffffffffffffffff163373ffffffffffffffffffffffffffffffffffffffff1614611c11576040517f08c379a0000000000000000000000000000000000000000000000000000000008152600401611c0890612754565b60405180910390fd5b8060078190555050565b60056020528060005260406000206000915090505481565b600360009054906101000a900473ffffffffffffffffffffffffffffffffffffffff1681565b60008060018681548110611c7057611c6f612774565b5b90600052602060002090600c02019050848484604051602001611c959392919061287d565b60405160208183030381529060405280519060200120816005015414915050949350505050565b600060018281548110611cd257611cd1612774565b5b90600052602060002090600c020190508060040160009054906101000a900460ff1615611d1757806006015460086000828254611d0f9190612a4a565b925050819055505b60008160040160006101000a81548160ff0219169083151502179055505050565b6000611d42610cd0565b6003611d4e9190612c8b565b60008054906101000a900473ffffffffffffffffffffffffffffffffffffffff1673ffffffffffffffffffffffffffffffffffffffff166318160ddd6040518163ffffffff1660e01b8152600401602060405180830381865afa158015611db9573d6000803e3d6000fd5b505050506040513d601f19601f82011682018060405250810190611ddd9190612b48565b83611de89190612c8b565b611df29190612d14565b60025460008054906101000a900473ffffffffffffffffffffffffffffffffffffffff1673ffffffffffffffffffffffffffffffffffffffff166318160ddd6040518163ffffffff1660e01b8152600401602060405180830381865afa158015611e60573d6000803e3d6000fd5b505050506040513d601f19601f82011682018060405250810190611e849190612b48565b611e8e9190612d14565b611e9891906127d2565b9050919050565b5080546000825590600052602060002090810190611ebd9190611f46565b50565b828054611ecc906126d6565b90600052602060002090601f016020900481019282611eee5760008555611f35565b82601f10611f0757805160ff1916838001178555611f35565b82800160010185558215611f35579182015b82811115611f34578251825591602001919060010190611f19565b5b509050611f429190611f46565b5090565b5b80821115611f5f576000816000905550600101611f47565b5090565b6000604051905090565b600080fd5b600080fd5b6000819050919050565b611f8a81611f77565b8114611f9557600080fd5b50565b600081359050611fa781611f81565b92915050565b600060208284031215611fc357611fc2611f6d565b5b6000611fd184828501611f98565b91505092915050565b600073ffffffffffffffffffffffffffffffffffffffff82169050919050565b600061200582611fda565b9050919050565b61201581611ffa565b82525050565b61202481611f77565b82525050565b600081519050919050565b600082825260208201905092915050565b60005b83811015612064578082015181840152602081019050612049565b83811115612073576000848401525b50505050565b6000601f19601f8301169050919050565b60006120958261202a565b61209f8185612035565b93506120af818560208601612046565b6120b881612079565b840191505092915050565b60008115159050919050565b6120d8816120c3565b82525050565b6000819050919050565b6120f1816120de565b82525050565b60006101608201905061210d600083018e61200c565b61211a602083018d61201b565b818103604083015261212c818c61208a565b905061213b606083018b61201b565b612148608083018a6120cf565b61215560a08301896120cf565b61216260c08301886120e8565b61216f60e083018761201b565b61217d61010083018661201b565b61218b61012083018561201b565b61219961014083018461200c565b9c9b505050505050505050505050565b6121b281611ffa565b81146121bd57600080fd5b50565b6000813590506121cf816121a9565b92915050565b600080604083850312156121ec576121eb611f6d565b5b60006121fa858286016121c0565b925050602061220b85828601611f98565b9150509250929050565b600060208201905061222a600083018461201b565b92915050565b600060208201905061224560008301846120cf565b92915050565b600080fd5b600080fd5b7f4e487b7100000000000000000000000000000000000000000000000000000000600052604160045260246000fd5b61228d82612079565b810181811067ffffffffffffffff821117156122ac576122ab612255565b5b80604052505050565b60006122bf611f63565b90506122cb8282612284565b919050565b600067ffffffffffffffff8211156122eb576122ea612255565b5b6122f482612079565b9050602081019050919050565b82818337600083830152505050565b600061232361231e846122d0565b6122b5565b90508281526020810184848401111561233f5761233e612250565b5b61234a848285612301565b509392505050565b600082601f8301126123675761236661224b565b5b8135612377848260208601612310565b91505092915050565b6000806040838503121561239757612396611f6d565b5b60006123a585828601611f98565b925050602083013567ffffffffffffffff8111156123c6576123c5611f72565b5b6123d285828601612352565b9150509250929050565b6000602082840312156123f2576123f1611f6d565b5b6000612400848285016121c0565b91505092915050565b612412816120c3565b811461241d57600080fd5b50565b60008135905061242f81612409565b92915050565b6000806040838503121561244c5761244b611f6d565b5b600061245a858286016121c0565b925050602061246b85828601612420565b9150509250929050565b6000806040838503121561248c5761248b611f6d565b5b600061249a85828601611f98565b92505060206124ab85828601612420565b9150509250929050565b600067ffffffffffffffff8211156124d0576124cf612255565b5b6124d982612079565b9050602081019050919050565b60006124f96124f4846124b5565b6122b5565b90508281526020810184848401111561251557612514612250565b5b612520848285612301565b509392505050565b600082601f83011261253d5761253c61224b565b5b813561254d8482602086016124e6565b91505092915050565b600080600080600060a0868803121561257257612571611f6d565b5b6000612580888289016121c0565b955050602061259188828901611f98565b945050604086013567ffffffffffffffff8111156125b2576125b1611f72565b5b6125be88828901612528565b935050606086013567ffffffffffffffff8111156125df576125de611f72565b5b6125eb88828901612352565b92505060806125fc88828901611f98565b9150509295509295909350565b600060208201905061261e600083018461200c565b92915050565b6000806000806080858703121561263e5761263d611f6d565b5b600061264c87828801611f98565b945050602061265d878288016121c0565b935050604061266e87828801611f98565b925050606085013567ffffffffffffffff81111561268f5761268e611f72565b5b61269b87828801612352565b91505092959194509250565b7f4e487b7100000000000000000000000000000000000000000000000000000000600052602260045260246000fd5b600060028204905060018216806126ee57607f821691505b60208210811415612702576127016126a7565b5b50919050565b7f4e6f7420612063757261746f7200000000000000000000000000000000000000600082015250565b600061273e600d83612035565b915061274982612708565b602082019050919050565b6000602082019050818103600083015261276d81612731565b9050919050565b7f4e487b7100000000000000000000000000000000000000000000000000000000600052603260045260246000fd5b7f4e487b7100000000000000000000000000000000000000000000000000000000600052601160045260246000fd5b60006127dd82611f77565b91506127e883611f77565b9250827fffffffffffffffffffffffffffffffffffffffffffffffffffffffffffffffff0382111561281d5761281c6127a3565b5b828201905092915050565b600081519050919050565b600082825260208201905092915050565b600061284f82612828565b6128598185612833565b9350612869818560208601612046565b61287281612079565b840191505092915050565b6000606082019050612892600083018661200c565b61289f602083018561201b565b81810360408301526128b18184612844565b9050949350505050565b7f50726f706f73616c2063616e6e6f742062652065786563757465640000000000600082015250565b60006128f1601b83612035565b91506128fc826128bb565b602082019050919050565b60006020820190508181036000830152612920816128e4565b9050919050565b600081905092915050565b50565b6000612942600083612927565b915061294d82612932565b600082019050919050565b600061296382612935565b9150819050919050565b7f5472616e73616374696f6e206661696c65640000000000000000000000000000600082015250565b60006129a3601283612035565b91506129ae8261296d565b602082019050919050565b600060208201905081810360008301526129d281612996565b9050919050565b60006129e482612828565b6129ee8185612927565b93506129fe818560208601612046565b80840191505092915050565b6000612a1682846129d9565b915081905092915050565b6000604082019050612a3660008301856120cf565b612a43602083018461201b565b9392505050565b6000612a5582611f77565b9150612a6083611f77565b925082821015612a7357612a726127a3565b5b828203905092915050565b6000612a8982611f77565b91507fffffffffffffffffffffffffffffffffffffffffffffffffffffffffffffffff821415612abc57612abb6127a3565b5b600182019050919050565b7f546f6f206c617465000000000000000000000000000000000000000000000000600082015250565b6000612afd600883612035565b9150612b0882612ac7565b602082019050919050565b60006020820190508181036000830152612b2c81612af0565b9050919050565b600081519050612b4281611f81565b92915050565b600060208284031215612b5e57612b5d611f6d565b5b6000612b6c84828501612b33565b91505092915050565b7f4e6f74206120746f6b656e486f6c646572000000000000000000000000000000600082015250565b6000612bab601183612035565b9150612bb682612b75565b602082019050919050565b60006020820190508181036000830152612bda81612b9e565b9050919050565b7f4e6f7420636f72726563742070726f706f73616c000000000000000000000000600082015250565b6000612c17601483612035565b9150612c2282612be1565b602082019050919050565b60006020820190508181036000830152612c4681612c0a565b9050919050565b6000606082019050612c62600083018661200c565b612c6f602083018561201b565b8181036040830152612c81818461208a565b9050949350505050565b6000612c9682611f77565b9150612ca183611f77565b9250817fffffffffffffffffffffffffffffffffffffffffffffffffffffffffffffffff0483118215151615612cda57612cd96127a3565b5b828202905092915050565b7f4e487b7100000000000000000000000000000000000000000000000000000000600052601260045260246000fd5b6000612d1f82611f77565b9150612d2a83611f77565b925082612d3a57612d39612ce5565b5b82820490509291505056fea264697066735822122081d8c9773498ffafcb8801c6f381f66c51020104d421179e06690e5a39133de664736f6c634300080a0033",
  "linkReferences": {},
  "deployedLinkReferences": {}
}