{
  "_format": "hh-sol-artifact-1",
  "contractName": "Token",
  "sourceName": "contracts/Token.sol",
  "abi": [
    {
      "inputs": [
        {
          "internalType": "string",
          "name": "_tokenName",
          "type": "string"
        },
        {
          "internalType": "string",
          "name": "_tokenSymbol",
          "type": "string"
        },
        {
          "internalType": "uint256",
          "name": "_decimalPlaces",
          "type": "uint256"
        }
      ],
      "stateMutability": "nonpayable",
      "type": "constructor"
    },
    {
      "anonymous": false,
      "inputs": [
        {
          "indexed": true,
          "internalType": "address",
          "name": "_owner",
          "type": "address"
        },
        {
          "indexed": true,
          "internalType": "address",
          "name": "_spender",
          "type": "address"
        },
        {
          "indexed": false,
          "internalType": "uint256",
          "name": "_amount",
          "type": "uint256"
        }
      ],
      "name": "Approval",
      "type": "event"
    },
    {
      "anonymous": false,
      "inputs": [
        {
          "indexed": true,
          "internalType": "address",
          "name": "to",
          "type": "address"
        },
        {
          "indexed": false,
          "internalType": "uint256",
          "name": "amount",
          "type": "uint256"
        }
      ],
      "name": "CreatedToken",
      "type": "event"
    },
    {
      "anonymous": false,
      "inputs": [
        {
          "indexed": true,
          "internalType": "address",
          "name": "_from",
          "type": "address"
        },
        {
          "indexed": true,
          "internalType": "address",
          "name": "_to",
          "type": "address"
        },
        {
          "indexed": false,
          "internalType": "uint256",
          "name": "_amount",
          "type": "uint256"
        }
      ],
      "name": "Transfer",
      "type": "event"
    },
    {
      "inputs": [],
      "name": "admin",
      "outputs": [
        {
          "internalType": "address",
          "name": "",
          "type": "address"
        }
      ],
      "stateMutability": "view",
      "type": "function"
    },
    {
      "inputs": [
        {
          "internalType": "address",
          "name": "_owner",
          "type": "address"
        },
        {
          "internalType": "address",
          "name": "_spender",
          "type": "address"
        }
      ],
      "name": "allowance",
      "outputs": [
        {
          "internalType": "uint256",
          "name": "remaining",
          "type": "uint256"
        }
      ],
      "stateMutability": "view",
      "type": "function"
    },
    {
      "inputs": [
        {
          "internalType": "address",
          "name": "_spender",
          "type": "address"
        },
        {
          "internalType": "uint256",
          "name": "_amount",
          "type": "uint256"
        }
      ],
      "name": "approve",
      "outputs": [
        {
          "internalType": "bool",
          "name": "success",
          "type": "bool"
        }
      ],
      "stateMutability": "nonpayable",
      "type": "function"
    },
    {
      "inputs": [
        {
          "internalType": "address",
          "name": "_owner",
          "type": "address"
        }
      ],
      "name": "balanceOf",
      "outputs": [
        {
          "internalType": "uint256",
          "name": "balance",
          "type": "uint256"
        }
      ],
      "stateMutability": "view",
      "type": "function"
    },
    {
      "inputs": [
        {
          "internalType": "address",
          "name": "_tokenHolder",
          "type": "address"
        }
      ],
      "name": "createToken",
      "outputs": [
        {
          "internalType": "bool",
          "name": "success",
          "type": "bool"
        }
      ],
      "stateMutability": "payable",
      "type": "function"
    },
    {
      "inputs": [],
      "name": "decimals",
      "outputs": [
        {
          "internalType": "uint256",
          "name": "",
          "type": "uint256"
        }
      ],
      "stateMutability": "view",
      "type": "function"
    },
    {
      "inputs": [],
      "name": "getBalance",
      "outputs": [
        {
          "internalType": "uint256",
          "name": "",
          "type": "uint256"
        }
      ],
      "stateMutability": "view",
      "type": "function"
    },
    {
      "inputs": [],
      "name": "name",
      "outputs": [
        {
          "internalType": "string",
          "name": "",
          "type": "string"
        }
      ],
      "stateMutability": "view",
      "type": "function"
    },
    {
      "inputs": [
        {
          "internalType": "address payable",
          "name": "_dao",
          "type": "address"
        }
      ],
      "name": "setDAO",
      "outputs": [],
      "stateMutability": "nonpayable",
      "type": "function"
    },
    {
      "inputs": [],
      "name": "symbol",
      "outputs": [
        {
          "internalType": "string",
          "name": "",
          "type": "string"
        }
      ],
      "stateMutability": "view",
      "type": "function"
    },
    {
      "inputs": [],
      "name": "totalSupply",
      "outputs": [
        {
          "internalType": "uint256",
          "name": "",
          "type": "uint256"
        }
      ],
      "stateMutability": "view",
      "type": "function"
    },
    {
      "inputs": [
        {
          "internalType": "address",
          "name": "_to",
          "type": "address"
        },
        {
          "internalType": "uint256",
          "name": "_amount",
          "type": "uint256"
        }
      ],
      "name": "transfer",
      "outputs": [
        {
          "internalType": "bool",
          "name": "success",
          "type": "bool"
        }
      ],
      "stateMutability": "nonpayable",
      "type": "function"
    },
    {
      "inputs": [
        {
          "internalType": "address",
          "name": "_from",
          "type": "address"
        },
        {
          "internalType": "address",
          "name": "_to",
          "type": "address"
        },
        {
          "internalType": "uint256",
          "name": "_amount",
          "type": "uint256"
        }
      ],
      "name": "transferFrom",
      "outputs": [
        {
          "internalType": "bool",
          "name": "success",
          "type": "bool"
        }
      ],
      "stateMutability": "nonpayable",
      "type": "function"
    },
    {
      "inputs": [],
      "name": "withdraw",
      "outputs": [
        {
          "internalType": "bool",
          "name": "_success",
          "type": "bool"
        }
      ],
      "stateMutability": "nonpayable",
      "type": "function"
    }
  ],
  "bytecode": "0x60806040523480156200001157600080fd5b5060405162001cc238038062001cc2833981810160405281019062000037919062000342565b82600090805190602001906200004f929190620000ba565b50816001908051906020019062000068929190620000ba565b508060028190555033600460006101000a81548173ffffffffffffffffffffffffffffffffffffffff021916908373ffffffffffffffffffffffffffffffffffffffff16021790555050505062000441565b828054620000c8906200040b565b90600052602060002090601f016020900481019282620000ec576000855562000138565b82601f106200010757805160ff191683800117855562000138565b8280016001018555821562000138579182015b82811115620001375782518255916020019190600101906200011a565b5b5090506200014791906200014b565b5090565b5b80821115620001665760008160009055506001016200014c565b5090565b6000604051905090565b600080fd5b600080fd5b600080fd5b600080fd5b6000601f19601f8301169050919050565b7f4e487b7100000000000000000000000000000000000000000000000000000000600052604160045260246000fd5b620001d38262000188565b810181811067ffffffffffffffff82111715620001f557620001f462000199565b5b80604052505050565b60006200020a6200016a565b9050620002188282620001c8565b919050565b600067ffffffffffffffff8211156200023b576200023a62000199565b5b620002468262000188565b9050602081019050919050565b60005b838110156200027357808201518184015260208101905062000256565b8381111562000283576000848401525b50505050565b6000620002a06200029a846200021d565b620001fe565b905082815260208101848484011115620002bf57620002be62000183565b5b620002cc84828562000253565b509392505050565b600082601f830112620002ec57620002eb6200017e565b5b8151620002fe84826020860162000289565b91505092915050565b6000819050919050565b6200031c8162000307565b81146200032857600080fd5b50565b6000815190506200033c8162000311565b92915050565b6000806000606084860312156200035e576200035d62000174565b5b600084015167ffffffffffffffff8111156200037f576200037e62000179565b5b6200038d86828701620002d4565b935050602084015167ffffffffffffffff811115620003b157620003b062000179565b5b620003bf86828701620002d4565b9250506040620003d2868287016200032b565b9150509250925092565b7f4e487b7100000000000000000000000000000000000000000000000000000000600052602260045260246000fd5b600060028204905060018216806200042457607f821691505b602082108114156200043b576200043a620003dc565b5b50919050565b61187180620004516000396000f3fe6080604052600436106100dd5760003560e01c806370a082311161007f578063c21ab7f911610059578063c21ab7f9146102d8578063dd62ed3e14610308578063e73a914c14610345578063f851a4401461036e576100dd565b806370a082311461023357806395d89b4114610270578063a9059cbb1461029b576100dd565b806318160ddd116100bb57806318160ddd1461017557806323b872dd146101a0578063313ce567146101dd5780633ccfd60b14610208576100dd565b806306fdde03146100e2578063095ea7b31461010d57806312065fe01461014a575b600080fd5b3480156100ee57600080fd5b506100f7610399565b604051610104919061121a565b60405180910390f35b34801561011957600080fd5b50610134600480360381019061012f91906112d5565b610427565b6040516101419190611330565b60405180910390f35b34801561015657600080fd5b5061015f610519565b60405161016c919061135a565b60405180910390f35b34801561018157600080fd5b5061018a610521565b604051610197919061135a565b60405180910390f35b3480156101ac57600080fd5b506101c760048036038101906101c29190611375565b610527565b6040516101d49190611330565b60405180910390f35b3480156101e957600080fd5b506101f261090c565b6040516101ff919061135a565b60405180910390f35b34801561021457600080fd5b5061021d610912565b60405161022a9190611330565b60405180910390f35b34801561023f57600080fd5b5061025a600480360381019061025591906113c8565b610b56565b604051610267919061135a565b60405180910390f35b34801561027c57600080fd5b50610285610b9f565b604051610292919061121a565b60405180910390f35b3480156102a757600080fd5b506102c260048036038101906102bd91906112d5565b610c2d565b6040516102cf9190611330565b60405180910390f35b6102f260048036038101906102ed91906113c8565b610ef6565b6040516102ff9190611330565b60405180910390f35b34801561031457600080fd5b5061032f600480360381019061032a91906113f5565b611000565b60405161033c919061135a565b60405180910390f35b34801561035157600080fd5b5061036c60048036038101906103679190611473565b611087565b005b34801561037a57600080fd5b5061038361115b565b60405161039091906114af565b60405180910390f35b600080546103a6906114f9565b80601f01602080910402602001604051908101604052809291908181526020018280546103d2906114f9565b801561041f5780601f106103f45761010080835404028352916020019161041f565b820191906000526020600020905b81548152906001019060200180831161040257829003601f168201915b505050505081565b600081600660003373ffffffffffffffffffffffffffffffffffffffff1673ffffffffffffffffffffffffffffffffffffffff16815260200190815260200160002060008573ffffffffffffffffffffffffffffffffffffffff1673ffffffffffffffffffffffffffffffffffffffff168152602001908152602001600020819055508273ffffffffffffffffffffffffffffffffffffffff163373ffffffffffffffffffffffffffffffffffffffff167f8c5be1e5ebec7d5bd14f71427d1e84f3dd0314c0f7b2291e5b200ac8c7c3b92584604051610507919061135a565b60405180910390a36001905092915050565b600047905090565b60035481565b600081600560008673ffffffffffffffffffffffffffffffffffffffff1673ffffffffffffffffffffffffffffffffffffffff16815260200190815260200160002054101580156105f4575081600660008673ffffffffffffffffffffffffffffffffffffffff1673ffffffffffffffffffffffffffffffffffffffff16815260200190815260200160002060003373ffffffffffffffffffffffffffffffffffffffff1673ffffffffffffffffffffffffffffffffffffffff1681526020019081526020016000205410155b80156106005750600082115b80156106a75750600760009054906101000a900473ffffffffffffffffffffffffffffffffffffffff1673ffffffffffffffffffffffffffffffffffffffff1663252ccc3c846040518263ffffffff1660e01b815260040161066291906114af565b6020604051808303816000875af1158015610681573d6000803e3d6000fd5b505050506040513d601f19601f820116820180604052508101906106a59190611557565b155b801561074e5750600760009054906101000a900473ffffffffffffffffffffffffffffffffffffffff1673ffffffffffffffffffffffffffffffffffffffff1663252ccc3c856040518263ffffffff1660e01b815260040161070991906114af565b6020604051808303816000875af1158015610728573d6000803e3d6000fd5b505050506040513d601f19601f8201168201806040525081019061074c9190611557565b155b156109005781600560008573ffffffffffffffffffffffffffffffffffffffff1673ffffffffffffffffffffffffffffffffffffffff16815260200190815260200160002060008282546107a291906115b3565b9250508190555081600560008673ffffffffffffffffffffffffffffffffffffffff1673ffffffffffffffffffffffffffffffffffffffff16815260200190815260200160002060008282546107f89190611609565b9250508190555081600660008673ffffffffffffffffffffffffffffffffffffffff1673ffffffffffffffffffffffffffffffffffffffff16815260200190815260200160002060003373ffffffffffffffffffffffffffffffffffffffff1673ffffffffffffffffffffffffffffffffffffffff168152602001908152602001600020600082825461088b9190611609565b925050819055508273ffffffffffffffffffffffffffffffffffffffff168473ffffffffffffffffffffffffffffffffffffffff167fddf252ad1be2c89b69c2b068fc378daa952ba7f163c4a11628f55a4df523b3ef846040516108ef919061135a565b60405180910390a360019050610905565b600090505b9392505050565b60025481565b60008061091e33610b56565b141561095f576040517f08c379a000000000000000000000000000000000000000000000000000000000815260040161095690611689565b60405180910390fd5b600760009054906101000a900473ffffffffffffffffffffffffffffffffffffffff1673ffffffffffffffffffffffffffffffffffffffff16633bf53a896040518163ffffffff1660e01b8152600401600060405180830381600087803b1580156109c957600080fd5b505af11580156109dd573d6000803e3d6000fd5b505050506000600560003373ffffffffffffffffffffffffffffffffffffffff1673ffffffffffffffffffffffffffffffffffffffff16815260200190815260200160002054905060006003544783610a3691906116a9565b610a409190611732565b90506000600560003373ffffffffffffffffffffffffffffffffffffffff1673ffffffffffffffffffffffffffffffffffffffff168152602001908152602001600020819055503373ffffffffffffffffffffffffffffffffffffffff166108fc829081150290604051600060405180830381858888f19350505050158015610acd573d6000803e3d6000fd5b508160036000828254610ae09190611609565b92505081905550600073ffffffffffffffffffffffffffffffffffffffff163373ffffffffffffffffffffffffffffffffffffffff167fddf252ad1be2c89b69c2b068fc378daa952ba7f163c4a11628f55a4df523b3ef84604051610b45919061135a565b60405180910390a360019250505090565b6000600560008373ffffffffffffffffffffffffffffffffffffffff1673ffffffffffffffffffffffffffffffffffffffff168152602001908152602001600020549050919050565b60018054610bac906114f9565b80601f0160208091040260200160405190810160405280929190818152602001828054610bd8906114f9565b8015610c255780601f10610bfa57610100808354040283529160200191610c25565b820191906000526020600020905b815481529060010190602001808311610c0857829003601f168201915b505050505081565b600081600560003373ffffffffffffffffffffffffffffffffffffffff1673ffffffffffffffffffffffffffffffffffffffff1681526020019081526020016000205410158015610c7e5750600082115b8015610d255750600760009054906101000a900473ffffffffffffffffffffffffffffffffffffffff1673ffffffffffffffffffffffffffffffffffffffff1663252ccc3c336040518263ffffffff1660e01b8152600401610ce091906114af565b6020604051808303816000875af1158015610cff573d6000803e3d6000fd5b505050506040513d601f19601f82011682018060405250810190610d239190611557565b155b8015610dcc5750600760009054906101000a900473ffffffffffffffffffffffffffffffffffffffff1673ffffffffffffffffffffffffffffffffffffffff1663252ccc3c846040518263ffffffff1660e01b8152600401610d8791906114af565b6020604051808303816000875af1158015610da6573d6000803e3d6000fd5b505050506040513d601f19601f82011682018060405250810190610dca9190611557565b155b15610eeb5781600560003373ffffffffffffffffffffffffffffffffffffffff1673ffffffffffffffffffffffffffffffffffffffff1681526020019081526020016000206000828254610e209190611609565b9250508190555081600560008573ffffffffffffffffffffffffffffffffffffffff1673ffffffffffffffffffffffffffffffffffffffff1681526020019081526020016000206000828254610e7691906115b3565b925050819055508273ffffffffffffffffffffffffffffffffffffffff163373ffffffffffffffffffffffffffffffffffffffff167fddf252ad1be2c89b69c2b068fc378daa952ba7f163c4a11628f55a4df523b3ef84604051610eda919061135a565b60405180910390a360019050610ef0565b600090505b92915050565b6000803411610f3a576040517f08c379a0000000000000000000000000000000000000000000000000000000008152600401610f31906117af565b60405180910390fd5b34600560008473ffffffffffffffffffffffffffffffffffffffff1673ffffffffffffffffffffffffffffffffffffffff1681526020019081526020016000206000828254610f8991906115b3565b925050819055503460036000828254610fa291906115b3565b925050819055508173ffffffffffffffffffffffffffffffffffffffff167fdbccb92686efceafb9bb7e0394df7f58f71b954061b81afb57109bf247d3d75a34604051610fef919061135a565b60405180910390a260019050919050565b6000600660008473ffffffffffffffffffffffffffffffffffffffff1673ffffffffffffffffffffffffffffffffffffffff16815260200190815260200160002060008373ffffffffffffffffffffffffffffffffffffffff1673ffffffffffffffffffffffffffffffffffffffff16815260200190815260200160002054905092915050565b600460009054906101000a900473ffffffffffffffffffffffffffffffffffffffff1673ffffffffffffffffffffffffffffffffffffffff163373ffffffffffffffffffffffffffffffffffffffff1614611117576040517f08c379a000000000000000000000000000000000000000000000000000000000815260040161110e9061181b565b60405180910390fd5b80600760006101000a81548173ffffffffffffffffffffffffffffffffffffffff021916908373ffffffffffffffffffffffffffffffffffffffff16021790555050565b600460009054906101000a900473ffffffffffffffffffffffffffffffffffffffff1681565b600081519050919050565b600082825260208201905092915050565b60005b838110156111bb5780820151818401526020810190506111a0565b838111156111ca576000848401525b50505050565b6000601f19601f8301169050919050565b60006111ec82611181565b6111f6818561118c565b935061120681856020860161119d565b61120f816111d0565b840191505092915050565b6000602082019050818103600083015261123481846111e1565b905092915050565b600080fd5b600073ffffffffffffffffffffffffffffffffffffffff82169050919050565b600061126c82611241565b9050919050565b61127c81611261565b811461128757600080fd5b50565b60008135905061129981611273565b92915050565b6000819050919050565b6112b28161129f565b81146112bd57600080fd5b50565b6000813590506112cf816112a9565b92915050565b600080604083850312156112ec576112eb61123c565b5b60006112fa8582860161128a565b925050602061130b858286016112c0565b9150509250929050565b60008115159050919050565b61132a81611315565b82525050565b60006020820190506113456000830184611321565b92915050565b6113548161129f565b82525050565b600060208201905061136f600083018461134b565b92915050565b60008060006060848603121561138e5761138d61123c565b5b600061139c8682870161128a565b93505060206113ad8682870161128a565b92505060406113be868287016112c0565b9150509250925092565b6000602082840312156113de576113dd61123c565b5b60006113ec8482850161128a565b91505092915050565b6000806040838503121561140c5761140b61123c565b5b600061141a8582860161128a565b925050602061142b8582860161128a565b9150509250929050565b600061144082611241565b9050919050565b61145081611435565b811461145b57600080fd5b50565b60008135905061146d81611447565b92915050565b6000602082840312156114895761148861123c565b5b60006114978482850161145e565b91505092915050565b6114a981611261565b82525050565b60006020820190506114c460008301846114a0565b92915050565b7f4e487b7100000000000000000000000000000000000000000000000000000000600052602260045260246000fd5b6000600282049050600182168061151157607f821691505b60208210811415611525576115246114ca565b5b50919050565b61153481611315565b811461153f57600080fd5b50565b6000815190506115518161152b565b92915050565b60006020828403121561156d5761156c61123c565b5b600061157b84828501611542565b91505092915050565b7f4e487b7100000000000000000000000000000000000000000000000000000000600052601160045260246000fd5b60006115be8261129f565b91506115c98361129f565b9250827fffffffffffffffffffffffffffffffffffffffffffffffffffffffffffffffff038211156115fe576115fd611584565b5b828201905092915050565b60006116148261129f565b915061161f8361129f565b92508282101561163257611631611584565b5b828203905092915050565b7f4e6f74206120746f6b656e486f6c646572000000000000000000000000000000600082015250565b600061167360118361118c565b915061167e8261163d565b602082019050919050565b600060208201905081810360008301526116a281611666565b9050919050565b60006116b48261129f565b91506116bf8361129f565b9250817fffffffffffffffffffffffffffffffffffffffffffffffffffffffffffffffff04831182151516156116f8576116f7611584565b5b828202905092915050565b7f4e487b7100000000000000000000000000000000000000000000000000000000600052601260045260246000fd5b600061173d8261129f565b91506117488361129f565b92508261175857611757611703565b5b828204905092915050565b7f4e6f207061796d656e7400000000000000000000000000000000000000000000600082015250565b6000611799600a8361118c565b91506117a482611763565b602082019050919050565b600060208201905081810360008301526117c88161178c565b9050919050565b7f4e6f7420616e2061646d696e0000000000000000000000000000000000000000600082015250565b6000611805600c8361118c565b9150611810826117cf565b602082019050919050565b60006020820190508181036000830152611834816117f8565b905091905056fea26469706673582212209e1cbee05077ce449fbb254708154bdd3b56be08e9d0b4641e0b2650837ff9ea64736f6c634300080a0033",
  "linkReferences": {},
  "deployedLinkReferences": {}
}